:020000040000fa
:080000000002040000000000f2
:020000040000fa
:1000080090020000900200009002000090020000a0
:100018009002000090020000900200009002000090
:100028009002000090020000900200009002000080
:100038009002000090020000900200009002000070
:100048009002000090020000900200009002000060
:100058009002000090020000900200009002000050
:100068009002000090020000900200009002000040
:100078009002000090020000900200009002000030
:100088009002000090020000900200009002000020
:100098009002000090020000900200009002000010
:1000a8009002000090020000900200009002000000
:1000b80090020000900200009002000090020000f0
:1000c80090020000900200009002000090020000e0
:1000d80090020000900200009002000090020000d0
:1000e80090020000900200009002000090020000c0
:1000f80090020000900200009002000090020000b0
:10010800900200009002000090020000900200009f
:10011800900200009002000090020000900200008f
:10012800900200009002000090020000900200007f
:10013800900200009002000090020000900200006f
:10014800900200009002000090020000900200005f
:10015800900200009002000090020000900200004f
:10016800900200009002000090020000900200003f
:1001780090020000900200000205000090020000ba
:10018800900200009002000090020000900200001f
:10019800900200009002000090020000900200000f
:1001a80090020000900200009002000090020000ff
:1001b80090020000900200009002000090020000ef
:1001c80090020000900200009002000090020000df
:1001d80090020000900200009002000090020000cf
:1001e80090020000900200009002000090020000bf
:0801f8009002000090020000db
:020000040000fa
:10020800900200009002000090020000900200009e
:10021800900200009002000090020000900200008e
:10022800900200009002000090020000900200007e
:10023800900200009002000090020000900200006e
:10024800900200009002000090020000900200005e
:10025800900200009002000090020000900200004e
:10026800900200009002000090020000900200003e
:10027800900200009002000090020000900200002e
:10028800900200009002000090020000900200001e
:10029800900200009002000090020000900200000e
:1002a80090020000900200009002000090020000fe
:1002b80090020000900200009002000090020000ee
:1002c80090020000900200009002000090020000de
:1002d80090020000900200009002000090020000ce
:1002e80090020000900200009002000090020000be
:1002f80090020000900200009002000090020000ae
:10030800900200009002000090020000900200009d
:10031800900200009002000090020000900200008d
:10032800900200009002000090020000900200007d
:10033800900200009002000090020000900200006d
:10034800900200009002000090020000900200005d
:10035800900200009002000090020000900200004d
:10036800900200009002000090020000900200003d
:1003780090020000900200000205000090020000b8
:10038800900200009002000090020000900200001d
:10039800900200009002000090020000900200000d
:1003a80090020000900200009002000090020000fd
:1003b80090020000900200009002000090020000ed
:1003c80090020000900200009002000090020000dd
:1003d80090020000900200009002000090020000cd
:1003e80090020000900200009002000090020000bd
:0803f8009002000090020000d9
:020000040000fa
:100400000fa320000e7f22000e01880000000000d4
:100410000c000700008221000100200011000700ed
:10042000000020000000e000020032000000020096
:1004300000000000fe150200000000000040da008d
:100440000000fe004440a900a00c20000000e000d5
:100450000300320000002000a00188004440a800f2
:100460000000060091018800800078000000eb0089
:1004700015003700e280400032a0b4009101ba00bc
:10048000e280400032a0b4009102ba00e280400055
:1004900032a0b4000002eb00472bde00f507b200eb
:1004a000602ce10004003a000059eb008301e900f0
:1004b000fdff3e00040037006128e100010032002a
:1004c0000082eb00040007001101ba000200e00006
:1004d000e8ff3a00000006003159ba008301e90044
:1004e0000c0032002159ba008301e90008003200f3
:1004f0000400e00003003a00e280400032a0b400b3
:10050000f5ff370011d9ba008301e900faff3a007c
:100510008100e800e180400032a0b4000000060045
:100520000040da000000fe000000fa0095a0a900db
:1005300021e3a90085a0a9000080fa0000000600c0
:100540000200fa00000f780085a0a9001e007800c4
:1005500000407800674060006740600067406000ce
:100560000080fb00670060004400dd005205800051
:10057000f1f82f00810061000080700050058800b4
:100580009e007800688060004300de000040780034
:10059000614060000080fb00610060004d00dd00f4
:1005a000a2048000f1ff2d00810061000080700036
:1005b000a00488000080fa00000006000000fa0095
:1005c0002023a9000080fa00000006000200fa00c3
:1005d000004f78009e4078000180fb000000400042
:1005e000800078000030200000804000100078007b
:1005f0000080fa00000006000a00fa00000f7800f0
:1006000011079800220798003307980044079800c4
:100610003e009000601988004e009000801988000c
:100620002e009000201988001e00900010198800ec
:100630001e007800001988001e0078000000d1001c
:1006400000407800614060000080fb0061006000b5
:100650000000400002198000d1ff2f0081006100de
:1006600000807000001988000080fa000000060079
:100670008001780002003700815978000401780079
:100680000202e900e00f5100fbff3a000000060003
:020000040000fa
:10069000120100000002000002000000000800003b
:1006a000d80400000a000000000100000102000060
:1006b00000010000090200004300000002010000e8
:1006c00000c000003209000004000000000100002a
:1006d00002020000010000000524000000100000dc
:1006e00001040000240200000205000024060000ae
:1006f00000010000052400000100000001070000c7
:100700000581000003080000000200000904000049
:1007100001000000020a00000000000000070000c5
:100720000502000002400000000000000705000074
:1007300082020000400000000000000004030000ee
:1007400009040000340300004d00000069000000af
:1007500063000000720000006f00000063000000f2
:100760006800000069000000700000002000000028
:1007700054000000650000006300000068000000f5
:100780006e0000006f0000006c0000006f000000b1
:100790006700000079000000200000004900000010
:1007a0006e000000630000002e0000003403000013
:1007b000430000004400000043000000200000004f
:1007c00052000000530000002d0000003200000025
:1007d000330000003200000020000000450000004f
:1007e0006d000000750000006c000000610000005a
:1007f00074000000690000006f0000006e0000003f
:100800002000000044000000650000006d000000b2
:100810006f0000005a8300009e830000a283000046
:04082000d68300007b
:020000040000fa
:100824000200fa009ec0a9000080eb00702488003a
:100834000080eb00502488000000eb005025880065
:10084400420020008000eb00c04a200087ff070020
:1008540020002000302588000000eb00402588009f
:100864008644a900f009200080248800f0092000b3
:10087400602488008804a80000a020004800de004e
:10088400c02488000040eb00004f780008003700c7
:100894009e4078000180fb00c200dd0000a0200023
:1008a400008140006000b8000089be001e4fe800cf
:1008b4001e407800eb4f5000f5ff36009424a8004a
:1008c4000000eb00b024880094a4a9009424a9009b
:1008d4000c00370080002000502488000040eb000a
:1008e4009ce8b7000040eb00a2e8b700a3c8bf0033
:1008f40060406000a3e8b700a4c8bf006040600087
:10090400a4e8b7005024800068006000e00f5000a5
:10091400f0ff3a0010002000e0458800100020009d
:10092400f04588000000eb00004688000000eb0062
:10093400104688000000eb00604588000040eb0092
:10094400004f78001b0037009e4078000180fb00b8
:100954008000400020892000008040008000eb00df
:10096400010878009e4078000180fb008000400070
:10097400c0882000008040008000eb00010878005f
:100984001e4078008080fb00208b20008080400087
:100994000040eb00804878001e4078008080fb0017
:1009a400508b2000808040000040eb00804878009d
:1009b4001e4fe8001e407800e24f5000e2ff360070
:1009c40080a0200090448800d0002000502588009a
:1009d400408c20001050880080c0b30000eab700ab
:1009e40040c8b30001eab7000040eb0084e8b70058
:1009f4000000eb00104488000080fa0000000600ac
:100a04003600f800809fbe00829fbe00849fbe0017
:100a1400869fbe003400f80000002000a00188007a
:100a24000200fa0010448000e10f50000b003a006d
:100a3400a12480000004200000806000e00f50002a
:100a440006003a000080eb00502488008c04a800c3
:100a54008c84a8002000200010448800002480001a
:100a640070006000e00f5000070032001024800086
:100a740070006000e00f500003003200000120000d
:100a8400002488005c0407004024800062006000a9
:100a9400e00f5000020032008ec0a9009d00370014
:100aa4005024800061006000e00f50000a00320012
:100ab4006024800061006000e00f500006003200f6
:100ac40057ff07009ec0a800400020001044880083
:100ad4001000200050248800502480007000600022
:100ae400e00f5000070032006024800070006000b6
:100af400e00f50000300320033040700000120001f
:100b0400502488005024800064006000e00f5000ee
:100b1400140032006024800064006000e00f500084
:100b240004003200120020008000eb003007200097
:100b3400e40807004000200050248800b8c8bf0023
:100b4400e04f500003003200b8c8bf000040e90085
:100b5400b8e8b700b8c8bf00e04f500001003a0041
:100b64009d010700512480000008200000806000df
:100b7400e00f5000060032006124800000082000cd
:100b840000806000e00f500001003200f70307000e
:100b94005024800062006000e00f50000c0032001e
:100ba4006024800062006000e00f50000800320002
:100bb400120020008000eb00f0ff2700c1080700ae
:100bc4000080eb007024880020002000502488005e
:100bd40010448000e30f500002003e008ec0a900c4
:100be4004c0037006024800068006000e00f500073
:100bf400470032000040eb00004f78003f00370010
:100c04005024800068006000e00f50003f00320074
:100c14009024800000407800aee8b700aec8bf0062
:100c24000080fb004400de0000407800afe8b7001d
:100c34008000200050248800aec8bf0068406000d7
:100c4400e04f500012003a00afc8bf000081fb0023
:100c54008080fb00508b2000008040009040780092
:100c640061c060000004a20061406000518b20005c
:100c7400810141006140600013417800e1cfb3007d
:100c84008140610000c07000804978001100370085
:100c9400afc8bf000081fb008080fb00208b2000d8
:100ca400008040009040780061c060000004a20011
:100cb40061406000218b200081014100614060009f
:100cc40013417800e1cfb3008140610000c070009f
:100cd40080497800afc8bf00e04f500002003a00de
:100ce400d1030700040037000001eb00e18a200073
:100cf40020072000730807001e4fe8001e407800fc
:100d0400e34f5000beff3600010037000000000032
:100d14008ec0a9000080fa003400f9004f03be0021
:100d24004f02be004f01be004f00be003600f90066
:100d3400004006000400fa0020479800314798005c
:100d44003e4090000080fb0068006000e00f50000f
:100d5400030032008040eb002e4090007a0107002f
:100d64003e4090000080fb0064006000e00f5000f3
:100d74000300320011c0b3002e409000720107003e
:100d8400a14a20002e4090000080fb00000040009b
:100d9400008f40001e007800be409000014878009b
:100da4000080fa00000006000800fa0020479800be
:100db4003147980022079800634798003e4090000e
:100dc400e04f5000070032002e4090000080fb00ee
:100dd400800040002089200000804000100f78002f
:100de400060037002e4090000080fb008000400089
:100df400c088200000804000100f78001e0078009a
:100e0400e00f500002003a000000eb003000370011
:100e1400ae0090001e007800110098001e007800bb
:100e2400ee409000014878001e00780010409000c9
:100e34000044b2009e007800904098001e007800a4
:100e44009040900080c8b30000c070009e007800fd
:100e5400904098003e409000e04f50000e00320059
:100e6400218920002e4090000080fb0000004000fb
:100e740080804000228920002e4090000080fb00ea
:100e84000000400000004100104078000024a2004f
:100e9400804878000d003700c18820002e40900063
:100ea4000080fb000000400080804000c2882000d9
:100eb4002e4090000080fb00000040000000410034
:100ec400104078000024a200804878001e007800ba
:100ed4000080fa00000006000400fa002047980091
:100ee400314798002e409000e04f50000d003a002a
:100ef4005144800080c0b300804878005044800092
:100f0400418c20001100980051448000c0c8b300f7
:100f1400904098009144800040c8b30090409800ed
:100f2400220037002e4090000080fb0000004000ab
:100f3400800078003e4090000080fb00008040006c
:100f44004300dd008000780000a02000008f4000f6
:100f54001e0078009040900040c8b30000c07000ac
:100f64009e007800904098002e4090000080fb0086
:100f740000004000800078003e4090000080fb00ac
:100f8400008040004300dd00e400400000a0200099
:100f9400008f40001e0078009040900040c8b300cd
:100fa40000c070009e007800904098000080fa0015
:100fb400000006000200fa00004f7800a12480001f
:100fc4000002200000806000e00f50005b0032004f
:100fd4009e4078000180fb008000400020892000b2
:100fe40000804000100278001e4178000280fb005f
:100ff400800040002089200000804000100078001c
:101004001001be00000420000100200082027800cc
:101014000301780080017800010078008382620077
:101024000000610001002000c000dd00000020007d
:101034000001be006128b8000001710081817100c7
:10104400028abe009e4178000380fb0080004000bd
:101054002089200000804000100278009e40780023
:101064000180fb00800040002089200000804000b7
:10107400100078001001be000004200001002000d0
:101084000000690081806900008abe002189200077
:101094001e4178000280fb00000040008080400078
:1010a400228920009e4178000380fb00000040005c
:1010b40000004100104078000024a200804878001d
:1010c4009e4078000180fb008000400020892000c1
:1010d40000804000900078001e4178000280fb00f0
:1010e4000001400020892000000041001000780029
:1010f400104090000044b200904098009e41780057
:101104000380fb0080004000208920000080400014
:10111400100178009e4078000180fb0080004000b0
:10112400208920000080400010007800904090004a
:1011340000c4b30000c06800104198000080fa00a9
:10114400000006000000fa000000eb00a024880064
:101154000000eb00602488000000eb0010448800cd
:101164000080fa00000006000000fa00104480002d
:10117400e00f500016003a000000eb00a0248800a5
:101184000000eb0060248800200020003025880047
:101194000000eb00402588008644a900f0092000e7
:1011a40080248800f0092000602488009ec0a800e4
:1011b400010037009404a800a024800061006000ae
:1011c400e00f5000fbff32001000200010448800a4
:1011d4000080fa00000006000000fa00e0458000ec
:1011e400e00f50002a003a0010002000e04588007b
:1011f400f0458000e00f500025003a001000200068
:10120400f045880099c8bf00e24f500007003a003b
:10121400914480000040eb008048780091448000b5
:1012240080ccb300904098001900370099c8bf00e3
:10123400e14f500016003a000000eb0080458800a2
:101244004144800080c0b30080487800404480005e
:10125400418c2000110098004144800040c8b30034
:101264009040980010002000804588005144800080
:1012740080c0b3008048780050448000418c200036
:10128400110098005144800000c8b30090409800b9
:101294000080fa00000006000000fa000000eb00e5
:1012a400004688000000eb001046880099c8bf0083
:1012b400e24f50000a003a005144800080c0b3005d
:1012c4008048780050448000c18c200011009800b0
:1012d4005144800080ccb30090409800180037003f
:1012e400cac8bf008080fb00cbc8bf000080fb00e1
:1012f4004800dd000100700080007800f0448000a8
:10130400808f500007003100cac8bf008080fb00f6
:10131400cbc8bf000080fb004800dd000100700066
:10132400f04488008700070090448000c18c2000ae
:10133400110098009144800080ccb3009040980044
:101344000080fa00000006000400fa00204798001c
:101354003147980000a02000000f78002e40900034
:101364000080fb0000004000800078003e409000b8
:101374000080fb00008040004300dd001e0f4000a1
:101384001e00780010017800f1ff27008100610041
:10139400010878003e409000e04f500007003a00fa
:1013a4002e4090000080fb0080004000c088200098
:1013b400008040001e087800060037002e40900090
:1013c4000080fb0080004000208920000080400055
:1013d4001e0878001e00780010017800f1ff2b0031
:1013e40081006100010878009e007800648040005c
:1013f40010017800010024008100710001087800c8
:101404000080fa00000006000000fa0094a4a9007d
:10141400e14480000008200000806000e00f5000dc
:101424001e003a00218a20009140780000c8b300d1
:1014340000c06000e04f50000b00320020c0b30039
:1014440099e8b70010468000e00f500001003a0010
:1014540091ff07000000eb00f04588000000eb005e
:10146400e0458800350037005144800080c0b30057
:101474008048780050448000418c2000110098007e
:1014840051448000c0c8b30090409800914480004b
:1014940040c8b3009040980028003700418c2000d9
:1014a4009140780000c8b30000c06000e04f5000d5
:1014b4000f00320010c0b30099e8b7000046800066
:1014c400e00f500001003a0073ff07000000eb003a
:1014d400f04588000000eb00e0458800d04580001e
:1014e400e00f500015003a003bff070013003700df
:1014f40020c0b30099e8b7005144800080c0b30015
:101504008048780050448000418c200011009800ed
:101514005144800040c8b300904098000000eb00a4
:10152400f04588000000eb00e0458800d0458000cd
:10153400e00f500001003a0027ff07000080fa0086
:10154400000006000200fa0080c0b300004f7800db
:10155400f0448000e70f50000d003e00f04480008e
:10156400004f780098c8bf00e04f500003003a00d5
:1015740010c0b30098e8b7000500370098c8bf0052
:10158400e14f500002003a0020c0b30098e8b700d1
:10159400f14480001e4178000280fb00008050006e
:1015a400f0448800904480001e487800c08c2000dd
:1015b40040458800e044800061006000e00f500076
:1015c40017003a000900370042458000d1448000ea
:1015d40011407800004978000200e8004045880086
:1015e4000100e800d04488001e4fe9001e40780046
:1015f400e04f5000f4ff3a000c00370042458000f1
:10160400d144800011407800004978000200e800cd
:10161400404588000100e800d04488001e4fe900de
:101624001e407800e04f5000f4ff3a000080fa00ba
:10163400000006000200fa0040448000104f7800c9
:101644001e4078008080fb00a3c8bf000081fb001f
:10165400a4c8bf000080fb004800dd000200700049
:10166400808f500007003600a3c8bf008080fb00b5
:10167400a4c8bf000080fb004800dd00010070002a
:10168400004f7800a3c8bf008080fb00a4c8bf003f
:101694000080fb004800dd0001007000800078003d
:1016a4001e4178000280fb0080805000f00f200073
:1016b40000816000a3c8bf00604060000240700069
:1016c400a3e8b700c808de00a4c8bf0060406000fb
:1016d40001407000a4e8b7000040eb0010479800f8
:1016e4001c003700a0c8bf008080fb00a1c8bf0059
:1016f4000080fb004800dd000100700080007800dd
:101704001e4090000081fb00c08c200000004100be
:1017140010407800804878008100e800f00f200035
:1017240000816000a0c8bf006040600002407000fb
:10173400a0e8b700c808de00a1c8bf006040600090
:1017440001407000a1e8b7001e4090000040e8008e
:10175400104798001e4090009e4f5000e1ff390052
:10176400a3c8bf008080fb00a4c8bf000080fb00aa
:101774004800dd0001007000e00f5000140032004a
:101784005144800080c0b3008048780050448000f9
:10179400c18c200011009800404480009000780023
:1017a4000000240000806000e00f500004003a00b4
:1017b4005144800080ccb300904098002100370051
:1017c4005144800080c8b300904098001d00370049
:1017d4005144800080c0b3008048780050448000a9
:1017e400418c2000110098005144800040c8b3008f
:1017f40090409800a5c8bf008080fb00a6c8bf0029
:101804000080fb004800dd0001007000e00f500084
:1018140007003200a5c8bf008080fb00a6c8bf0037
:101824000080fb004800dd000100700000000100a2
:10183400a2e8a900d0458000e00f500001003a0062
:1018440065fe07000080fa00000006000200fa00ae
:101854009ce8a800420020008000eb00c04a200061
:1018640082fb0700020320008000eb0000a02000a0
:101874007efb07009424a8000040eb00004f780092
:101884000d0037001e4078008080fb00208b200074
:10189400808040000040eb00804878001e407800c3
:1018a4008080fb00508b2000808040000040eb00d3
:1018b400804878001e4fe8001e407800e24f500038
:1018c400f0ff3600220020008000eb00508820004a
:1018d40066fb07009424a90080a02000904488009f
:1018e40000a0200040448800404480005044880008
:1018f400c6c8bf0084e8b70084c8bf00e04f5000ea
:1019040003003a000001200010448800060037005c
:101914001200200041882000100020006905070003
:1019240000022000104488000080fa000000060035
:101934000000fa00418c20009140780000c8b300f8
:1019440080cf500036003a0000ccb3009ce8b700ca
:10195400c7c8bf000080fb00e20f5000090032003e
:10196400e30f500018003200e10f500029003a0044
:1019740080342800d044880020012000f0448800ee
:1019840027003700c6c8bf000080fb0000004000ed
:1019940080007800a04028000080400010007800fb
:1019a400d0448800d04480000080e80010407800d3
:1019b4009ee8b700d04480006300400010407800e7
:1019c4009fe8b70016003700c6c8bf00e24f5000ba
:1019d4000d003e00c6c8bf000080fb0000004000b0
:1019e40080007800c040280000804000100078008b
:1019f400d0448800d0448000104078000080fb0070
:101a0400f0448800060037000040eb009ce8b70073
:101a1400030037000040eb009ce8b7000000000022
:101a24000080fa00000006000200fa000040eb000b
:101a3400cce8b7000040eb00cde8b700c4c8bf0055
:101a44007f4060000080fb00e10f50000f00320077
:101a5400e20f50000f003200e00f500037003a0050
:101a64009ce8a800ccc8bf000004a000cce8b700e4
:101a740050458000e10f50002b003a00ccc8bf0055
:101a84000014a000cce8b7002c0037009ce8a800a4
:101a94002a0037009ce8a800818c2000914078003f
:101aa40000c8b30000c06000e04f500008003a00d6
:101ab400c8c8bf006f4060000080fb008000400089
:101ac400c088200000804000100f78000700370015
:101ad400c8c8bf006f4060000080fb008000400069
:101ae4002089200000804000100f78001e0078003c
:101af400900078000000280000806000e00f500093
:101b04000b0032001e007800900078000040200096
:101b140000806000e00f50000700320010c0b300e6
:101b2400cce8b700050037000000000003003700d0
:101b3400000000000100370000000000e1448000c4
:101b44000008200000806000e00f50000500320013
:101b5400c08c2000d04488009c08a80020c0b3009a
:101b64009ee8b7000080fa00000006000000fa00ba
:101b74005025800062006000e00f50000e0032002b
:101b8400404480009040900000c8b30080cf5000d3
:101b940008003a00904480009040900040c8b30090
:101ba40080cf500003003a0041448000c0c8b30015
:101bb40090409800aa24a90000082000502488001e
:101bc4000080fa00000006000000fa008284a800e9
:101bd4000001200050248800100020006045880087
:101be4000001eb008000eb0050072000b504070063
:101bf4000080fa00000006000000fa000000eb007c
:101c0400604588000001eb008000eb0040072000e5
:101c1400ac0407008284a90000012000002488008d
:101c24000080fa00000006000200fa00d0c2b300ef
:101c3400b8e8b700aec8bf008080fb00b0ff2f003b
:101c440000806000e00f500031003a00aec8bf00d1
:101c54000080fb004200de00004078000080fb00b2
:101c6400c200dd0000a02000008040004044880045
:101c74004044800050448800a1882000a0882000af
:101c8400104078000024a20080487800404480007e
:101c94009000780000c02300808060000040230092
:101ca400808f500018003a000040eb00004f78008d
:101cb4000d0037001e4078008080fb00408c20001f
:101cc4008080400040448000100090001040780064
:101cd4008048780040448000900090008100e80033
:101ce400110098001e4fe8001e407800e74f500096
:101cf400f0ff360040448000418c20001100980021
:101d04000c000700090037004400070007003700f3
:101d1400aec8bf008080fb00b0ff2f0000806000d1
:101d2400e80f500001003a00550007000080fa0057
:101d3400000006000000fa000040eb0098e8b7003d
:101d44000000eb00d04588000000eb00004688004e
:101d54000000eb00104688000000eb00804588007e
:101d64000040eb0099e8b700914480009044800063
:101d7400104090000074a100904098002189200038
:101d840020892000104078000024a20080487800b8
:101d94009144800090448000104090000074a100a1
:101da400904098002189200020892000104078006c
:101db4000024a200804878005144800050448000f0
:101dc400104090000074a100904098000040eb0087
:101dd4009ce8b7000000eb00f04488000040eb00f2
:101de400a2e8b700a3c8bf0060406000a3e8b70042
:101df400a4c8bf0060406000a4e8b7006c000700fe
:101e04000001eb008000eb00300020002d040700ef
:101e14007dfd07000080fa00000006000000fa00c3
:101e240099c8bf00e24f500002003a0001fe0700cb
:101e3400110037000040eb0099e8b70080458000ae
:101e4400e00f50000a003a005144800080c0b30003
:101e54008048780050448000418c20001100980094
:101e640051448000c0c8b30090409800020037007d
:101e74000000eb00804588000080fa0000000600a6
:101e84000200fa0090448000100078004e00de004a
:101e940061406000004f78002189200020892000e3
:101ea400104078000024a20080487800104480008c
:101eb400e80f50000b003a00c6c8bf000080fb00ca
:101ec400b0248800b0248000e00f500003003200ea
:101ed4000001200010448800020037004000200068
:101ee4001044880099c8bf00e14f500016003a0022
:101ef40090448000c18c20001100980091fd0700df
:101f040098c8bf00e24f500004003a00914480009a
:101f140040c8b30090409800230037001e4078006a
:101f2400e04f500004003a009144800080ccb3009c
:101f3400904098001c0037009144800080c8b30092
:101f44009040980018003700218a200091407800c2
:101f540000c8b30000c06000e04f50001000320021
:101f6400a5c8bf008080fb00a6c8bf000080fb009e
:101f74004800dd0001007000e00f5000070032004f
:101f8400a5c8bf008080fb00a6c8bf000080fb007e
:101f94004800dd000100700000000100a2e8a90073
:101fa4000040eb0099e8b7000080fa00000006004a
:101fb4000000fa00c4c8bf000046b200e04f500061
:101fc4003f003a00c5c8bf000080fb00cf80de00a0
:101fd400b200200003002000820f5000838f5800bd
:101fe40039003e00006001001a0037001b00370072
:101ff4003700370019003700350037000600370076
:1020040009003700290037000b00370008003700ab
:10201400140037001d0037009ce8a8008000200051
:10202400104488002b00370041fe070029003700c8
:1020340006fe07002700370040882000d0448800af
:102044009c08a80010c0b3009ee8b7009ce8a80054
:102054002000370074fe07001e0037001f00070031
:102064001c003700c8c8bf008080fb0050882000d7
:1020740000804000d04488009c08a80010c0b30031
:102084009ee8b7009ce8a800120037009ce8a8006e
:10209400c8c8bf000081fb00c6c8bf00518820002b
:1020a40081004100804878000a0037000001eb00fd
:1020b4008000eb00200020008203070005003700a9
:1020c400000000000300370000000000010037009a
:1020d400000000000080fa00000006000600fa007c
:1020e400c6c8bf00e14f50000d003a00c4c8bf008d
:1020f4007f406000e04f500009003a009ce8a800cf
:10210400c5c8bf00e34f500003003a001000200090
:1021140050458800020037000000eb00504588005d
:10212400c6c8bf00e04f5000eb003a00c4c8bf006f
:102134007f406000e24f5000e7003a00c8c8bf008b
:102144006f406000e04f5000e3003200c8c8bf0099
:102154006f4060000080fb00e20f5000de003c0096
:102164001144800000022000808f5000da003a0001
:102174009ce8a800818c20009140780000c8b3003e
:1021840000c06000e04f500010003a00c8c8bf0013
:102194006f4060000080fb0080004000c088200089
:1021a400008040001000780010079800c8c8bf00e5
:1021b4006f4060008080fb00508b20000080400056
:1021c40010407800404798000f003700c8c8bf008f
:1021d4006f4060000080fb008000400020892000e8
:1021e400008040001000780010079800c8c8bf00a5
:1021f4006f4060008080fb00208b20000080400046
:1022040010407800404798004e40900061406000c4
:10221400e04f500007003a000e81e8000e80e8000d
:1022240090407800b0cfb30000c06000004978004f
:10223400050037008e80e8000e80e800104078002a
:102244000024a00080487800818c20009140780010
:1022540000c8b30000c06000e04f500009003a001d
:10226400c8c8bf006f4060000080fb009e00900063
:1022740000014000c08820000000410001087800ef
:1022840008003700c8c8bf006f4060000080fb0032
:102294009e009000000140002089200000004100c1
:1022a40001087800c5c8bf00e34f500024003a007d
:1022b4001e0090009000780000002800008060005c
:1022c400e00f500017003200818c2000914078000c
:1022d40000c8b30000c06000e04f500009003a009d
:1022e400c8c8bf006f4060008080fb00508b200096
:1022f40080804000114078000014a00080487800dd
:1023040008003700c8c8bf006f4060008080fb0031
:10231400208b200080804000114078000014a00031
:10232400804878001e0190001e00900090409000ac
:1023340040c8b30000c07000104198006600370028
:102344008e80e8000e80e800104078000024a2008f
:10235400804878001e00900090007800000028005b
:1023640000806000e00f5000110032009e009000d9
:102374001e009000104090000074a100904098004e
:102384001e0190001e0090009040900000c4b30015
:1023940000c07000104198001e0090002200200030
:1023a4008000780050002000c602070006003700b5
:1023b4001e0190001e0090009040900000c4b300e5
:1023c40000c07000104198008e80e8000e80e80084
:1023d400104078000024a200804878004e4090000d
:1023e40062406000e04f500006003a001e0090007a
:1023f400900078000000280000806000e00f50008a
:1024040024003200818c20009140780000c8b30081
:1024140000c06000e04f50000a003a00c8c8bf0086
:102424006f4060008080fb00508b200000814000e2
:1024340092407800d0cfb30000c06000004978001b
:1024440009003700c8c8bf006f4060008080fb00ef
:10245400208b20000081400092407800d0cfb30050
:1024640000c06000004978009e0090001e009000ab
:1024740010409000b043b200904098001e009000bd
:102484002200200080007800500020008d02070008
:10249400050037009e0090001e0090001040900040
:1024a400b043b20090409800a14a2000c8c8bf00c1
:1024b4006f4060000080fb0000004000008f40007f
:1024c4001e00780090407800d0cfb30000c06000b8
:1024d4009e007800804878000080fa000000060022
:1024e4000000fa00c4c8bf007f406000e14f500004
:1024f40074003a00c4c8bf0002c6b3008240600042
:1025040000c2b30080cf500070003a00c8c8bf00ba
:10251400e04f500003003200c8c8bf00e14f500034
:102524006c003a00c5c8bf000080fb00cf80de000d
:102534002202200003002000820f5000838f5800e5
:1025440066003e00006001002200370028003700ca
:102554006400370063003700620037006100370011
:10256400600037005f0037005e0037005d00370011
:102574005c0037005b0037005a0037005900370011
:102584005800370057003700560037005500370011
:102594005400370053003700520037005100370011
:1025a400500037004f0037004e0037004d00370011
:1025b4004c0037004b0037004a0037004900370011
:1025c40048003700470037000d003700320037005d
:1025d40038003700e08e2000d044880080002000be
:1025e400f04488009c08a8009ce8a8003e0037003e
:1025f400e08e2000d04488009ce8a8003a00370010
:10260400cac8bf008080fb00cbc8bf000080fb00ad
:102614004800dd000100700080007800f00f200009
:1026240000816000a3c8bf006040600002407000e9
:10263400a3e8b700c808de00a4c8bf00604060007b
:1026440001407000a4e8b700418d2000f00f200085
:1026540000816000a0c8bf006040600002407000bc
:10266400a0e8b700c808de00a1c8bf006040600051
:1026740001407000a1e8b700a5c8bf006040600039
:10268400a5e8b700a6c8bf0060406000a6e8b70090
:10269400a2e8a80014003700408d2000d044880030
:1026a40070002000f044880010ccb3009ce8b70010
:1026b4000d003700c6c8bf00e8e8b7009ce8a800d2
:1026c4000900370000000000070037000000000088
:1026d4000500370000000000030037000000000080
:1026e40001003700000000000080fa00000006002e
:1026f4000000fa0000b0240001002000a046880079
:10270400b14688000040eb00d8e8b7000040eb0079
:10271400d9e8b70080c0b300dae8b7000040eb00a6
:10272400dce8b70051c1b30010c0b30081f9070061
:10273400d1c1b30020c0b3007ef9070003c4b300c5
:10274400629320008040eb0020c0b30096f907009c
:10275400204788000000eb00304788000040eb0071
:10276400dde8b7000080fa00000006000600fa0069
:10277400000f780011079800220798001e007800c7
:10278400e50f500014003a00204780009e0090009e
:10279400808f500006003a0003c4b3006293200007
:1027a4008040eb0020c0b3007ff907002047880079
:1027b400304780009e009000808f500004003a0053
:1027c4000040eb00dde8b7000040eb00e2e8b700b2
:1027d40010002000010037000000eb000080fa0028
:1027e400000006000400fa00000f7800214798005a
:1027f4000040eb00dce8b70020478000e00f500009
:102804000600320020478000900078000000280075
:1028140000806000e00f500021003a002047800053
:10282400904078002e40900080cf5000030031008b
:102834002047800090407800214798000040eb003a
:10284400dce8b7000b003700dcc8bf000080fb00e9
:102854009e004000dcc8bf000080fb0062932000a3
:102864006240780080487800dcc8bf000040e8007f
:10287400dce8b700c18d2000914078002e40900024
:1028840080cf5000f0ff390003c4b30062932000ee
:102894008040eb0020c0b30043f9070020478800c4
:1028a400dcc8bf000080fa00000006000400fa0043
:1028b400000f7800214798009ec0a900ddc8bf0022
:1028c400e04f500008003a001e007800f0468800ef
:1028d4002e409000e2e8b70010c0b300e3e8b70070
:1028e40010c0b300dde8b7009ec0a8000080fa0065
:1028f400000006000600fa00200798009ec0a90008
:10290400ddc8bf00e04f5000020032009ec0a800a6
:102914001e0037000040eb00004f78002e009000ae
:10292400100798001e4fe8001e407800e14f400059
:102934000c0032001e009000104078000080fb0064
:102944000000ea004f00de00004078009e00900086
:102954008100e80011079800e04f5000f1ff3a00b1
:1029640001003700000000002e009000f0468800af
:102974001e407800e2e8b70010c0b300e3e8b700f7
:1029840010c0b300dde8b7009ec0a8000080fa00c4
:10299400000006000600fa00200798009ec0a90067
:1029a400ddc8bf00e04f5000020032009ec0a80006
:1029b4001e0037000040eb00004f78002e0090000e
:1029c400100798001e4fe8001e407800e14f4000b9
:1029d4000c0032001e009000104078000080fb00c4
:1029e4000000ea004f00de00004078009e009000e6
:1029f4008100e80011079800e04f5000f1ff3a0011
:102a040001003700000000002e009000f04688000e
:102a14001e407800e2e8b7000040eb00e3e8b700ae
:102a240010c0b300dde8b7009ec0a8000080fa0023
:102a3400000006000200fa009ec0a9003047800092
:102a4400e00f50000800320030478000900078000a
:102a54000000280000806000e00f500002003200f7
:102a64009ec0a80062003700ddc8bf00e34f5000dd
:102a740002003a000040eb00dde8b700ddc8bf000b
:102a8400e04f500002003a009ec0a80058003700f2
:102a9400ddc8bf00e24f500009003a008041eb005e
:102aa4000001eb0011c0b30020c0b300bef8070062
:102ab4003047880030c0b300dde8b7004b00370072
:102ac400ddc8bf00e14f500048003a00218e2000cd
:102ad4009140780000c4b30080cf5000030036005a
:102ae40000c4b300004f780002003700e2c8bf0002
:102af400004f7800e2c8bf001e405000e2e8b70073
:102b0400608f2000004788001e407800104798001e
:102b1400e3c8bf00e04f50001f003a000d0037002b
:102b240001478000f046800010407800804878001b
:102b3400004780000000e80000478800f04680005d
:102b44000000e800f04688001e4090000040e900c4
:102b5400104798001e409000e04f5000f0ff3a00ec
:102b64001000370001478000f046800010407800d4
:102b740080487800004780000000e8000047880093
:102b8400f04680000000e800f04688001e409000f7
:102b94000040e900104798001e409000e04f5000ac
:102ba400f0ff3a00e2c8bf00e04f500009003a00cd
:102bb40000c4b3009e40780080cf500003003a0068
:102bc40020c0b300dde8b7000200370030c0b30016
:102bd400dde8b7009e417800628f200011c0b30089
:102be40020c0b30070f80700304788009ec0a800da
:102bf4000080fa00000006000000fa00060007004a
:102c040010448000e00f500001003a0056f907001c
:102c140039000700faff37000200fa000080eb00d9
:102c24006019880080252000000f780044a7a800c0
:102c3400000000001e00ea001e0070004f00de00cd
:102c4400004078001e0fe900e04f5000f9ff3a0001
:102c540003000700f2f607000080fa0000000600f7
:102c64000e00fa00c862a8002ca3a8002df60700e5
:102c740050fe2f00100798000080eb0020079800fa
:102c84000080eb00300798000080eb0040079800bc
:102c940050002000500798000080eb006007980067
:102ca4006e029000de0190004e019000be00900084
:102cb4002e0090004ff607000000eb00000f780094
:102cc40005003700008020009e0040000040eb001b
:102cd400804878001e0fe800f00320009e00780072
:102ce400808f5000f7ff340070ff2f0013f60700a9
:102cf4000080fa00000006002400fa000040eb0007
:102d0400204798000000eb00000f780040c7b30094
:102d140001e8b70050c6b30002e8b70021e3a800f9
:102d24000000eb00000f78001000370022f60700c7
:102d3400000000000019800062006000e00f5000f5
:102d4400fcff32001e007800004078001ef60700e9
:102d5400800078001e00780000004000000047005a
:102d640064004000010878001e0fe8001e0078008f
:102d7400ef0f5000edff34002e40900000e8b70044
:102d840010448000ff0f50001000360040248000e3
:102d940062006000e00f50000e003a00ddc8bf0082
:102da400e04f500007003a0001c4b3000084200043
:102db4008cfe07003047980001c4b3000080200057
:102dc400bafe07001bff07000300370000000000e5
:102dd40001003700000000000080fa000000060037
:102de4000000fa006b0007000080fa0000000600f3
:102df4000000fa000080fa00000006000000fa005b
:102e04000080fa00000006000000fa000080fa00ca
:102e1400000006000000fa00b1fd07000080fa007f
:102e2400000006000000fa000080fa00000006001e
:102e34000000fa002efe07000080fa0000000600e1
:102e44000000fa0050458000e10f50001b003a00da
:102e540060458000e10f500018003a009ec0a900b0
:102e6400e3ff07008824a9000000eb006045880008
:102e740000e1200000448800004480000000e900d4
:102e84000044880000448000e00f5000faff3a003c
:102e94009444a8008070200000448800004480000e
:102ea4000000e9000044880000448000e00f500066
:102eb400faff3a009444a9009ec0a8000080fa00da
:102ec400000006000600fa00000f780011079800c1
:102ed400220798001e00780021072000810f50006f
:102ee4002800320021072000810f50000a003c0016
:102ef400e20f50001d003200e20f500003003c00be
:102f0400e10f5000170032001f003700e30f50009c
:102f1400180032001c00370041072000810f5000c8
:102f24000e00320041072000810f500007003500d9
:102f340051072000810f500006003200f1ff2700e6
:102f4400810f50000d0032000f003700abff070067
:102f54000d003700a2ff07000b003700a4ff070095
:102f640009003700b2ff070007003700adff070074
:102f740005003700a7ff070003003700a2ff070082
:102f84000100370000000000100020000080fa005b
:102f9400000006000800fa0080248000000f78007a
:102fa40060248000100798001024800020079800f7
:102fb400f00480004600de00614060006047980035
:102fc4000000eb00802488000000eb0060248800ef
:102fd4000000eb00102488008ec0a9008284a800a1
:102fe40000012000002488009ec0a8000040fe00cc
:102ff4006e409000614060000080fb006100600052
:103004004600dd00f2048000f1fb2f008100610026
:1030140000807000f00488001e007800802488007e
:103024001e009000602488002e0090001024880068
:0c303400100020000080fa0000000600e0
:020000040000fa
:10304000820800005200000000000000000a00009a
:103050003000000000000000f60800008a000000b8
:1030600000000000d4080000220000000000000062
:1030700000080000820000000000000000000000c6
:020000040000fa
:020000040001f9
:0457f00033ff000083
:020000040000fa
:020000040001f9
:0457f400c0ff0000f2
:020000040000fa
:020000040001f9
:0457f8008f09000015
:020000040000fa
:020000040001f9
:0457fc00603f00000a
:00000001FF
